{
  "_format": "hh-sol-artifact-1",
  "contractName": "Auction",
  "sourceName": "contracts/Auction.sol",
  "abi": [
    {
      "inputs": [
        {
          "internalType": "address payable",
          "name": "_seller",
          "type": "address"
        },
        {
          "internalType": "uint256",
          "name": "_startingPrice",
          "type": "uint256"
        },
        {
          "internalType": "uint256",
          "name": "_auctionEndTime",
          "type": "uint256"
        }
      ],
      "stateMutability": "nonpayable",
      "type": "constructor"
    },
    {
      "anonymous": false,
      "inputs": [
        {
          "indexed": false,
          "internalType": "address",
          "name": "winner",
          "type": "address"
        },
        {
          "indexed": false,
          "internalType": "uint256",
          "name": "winningBid",
          "type": "uint256"
        }
      ],
      "name": "AuctionEnded",
      "type": "event"
    },
    {
      "anonymous": false,
      "inputs": [
        {
          "indexed": false,
          "internalType": "address",
          "name": "bidder",
          "type": "address"
        },
        {
          "indexed": false,
          "internalType": "uint256",
          "name": "amount",
          "type": "uint256"
        }
      ],
      "name": "BidCreated",
      "type": "event"
    },
    {
      "inputs": [],
      "name": "auctionEndTime",
      "outputs": [
        {
          "internalType": "uint256",
          "name": "",
          "type": "uint256"
        }
      ],
      "stateMutability": "view",
      "type": "function"
    },
    {
      "inputs": [],
      "name": "auctionEnded",
      "outputs": [
        {
          "internalType": "bool",
          "name": "",
          "type": "bool"
        }
      ],
      "stateMutability": "view",
      "type": "function"
    },
    {
      "inputs": [],
      "name": "bid",
      "outputs": [],
      "stateMutability": "payable",
      "type": "function"
    },
    {
      "inputs": [],
      "name": "bidCount",
      "outputs": [
        {
          "internalType": "uint256",
          "name": "",
          "type": "uint256"
        }
      ],
      "stateMutability": "view",
      "type": "function"
    },
    {
      "inputs": [
        {
          "internalType": "uint256",
          "name": "",
          "type": "uint256"
        }
      ],
      "name": "bids",
      "outputs": [
        {
          "internalType": "address",
          "name": "bidder",
          "type": "address"
        },
        {
          "internalType": "uint256",
          "name": "bid",
          "type": "uint256"
        }
      ],
      "stateMutability": "view",
      "type": "function"
    },
    {
      "inputs": [],
      "name": "checkAuctionEndTime",
      "outputs": [
        {
          "internalType": "uint256",
          "name": "",
          "type": "uint256"
        }
      ],
      "stateMutability": "view",
      "type": "function"
    },
    {
      "inputs": [
        {
          "internalType": "uint256",
          "name": "index",
          "type": "uint256"
        }
      ],
      "name": "checkBid",
      "outputs": [
        {
          "internalType": "address",
          "name": "",
          "type": "address"
        },
        {
          "internalType": "uint256",
          "name": "",
          "type": "uint256"
        }
      ],
      "stateMutability": "view",
      "type": "function"
    },
    {
      "inputs": [],
      "name": "endAuction",
      "outputs": [],
      "stateMutability": "nonpayable",
      "type": "function"
    },
    {
      "inputs": [],
      "name": "getAuctionDetails",
      "outputs": [
        {
          "internalType": "address",
          "name": "",
          "type": "address"
        },
        {
          "internalType": "uint256",
          "name": "",
          "type": "uint256"
        },
        {
          "internalType": "uint256",
          "name": "",
          "type": "uint256"
        },
        {
          "internalType": "address",
          "name": "",
          "type": "address"
        },
        {
          "internalType": "uint256",
          "name": "",
          "type": "uint256"
        },
        {
          "internalType": "bool",
          "name": "",
          "type": "bool"
        },
        {
          "internalType": "uint256",
          "name": "",
          "type": "uint256"
        }
      ],
      "stateMutability": "view",
      "type": "function"
    },
    {
      "inputs": [],
      "name": "highestBid",
      "outputs": [
        {
          "internalType": "uint256",
          "name": "",
          "type": "uint256"
        }
      ],
      "stateMutability": "view",
      "type": "function"
    },
    {
      "inputs": [],
      "name": "highestBidder",
      "outputs": [
        {
          "internalType": "address",
          "name": "",
          "type": "address"
        }
      ],
      "stateMutability": "view",
      "type": "function"
    },
    {
      "inputs": [],
      "name": "seller",
      "outputs": [
        {
          "internalType": "address payable",
          "name": "",
          "type": "address"
        }
      ],
      "stateMutability": "view",
      "type": "function"
    },
    {
      "inputs": [],
      "name": "startingPrice",
      "outputs": [
        {
          "internalType": "uint256",
          "name": "",
          "type": "uint256"
        }
      ],
      "stateMutability": "view",
      "type": "function"
    }
  ],
  "bytecode": "0x60806040523480156200001157600080fd5b506040516200118238038062001182833981810160405281019062000037919062000149565b826000806101000a81548173ffffffffffffffffffffffffffffffffffffffff021916908373ffffffffffffffffffffffffffffffffffffffff160217905550816001819055506001546002819055508042620000959190620001d4565b6004819055505050506200020f565b600080fd5b600073ffffffffffffffffffffffffffffffffffffffff82169050919050565b6000620000d682620000a9565b9050919050565b620000e881620000c9565b8114620000f457600080fd5b50565b6000815190506200010881620000dd565b92915050565b6000819050919050565b62000123816200010e565b81146200012f57600080fd5b50565b600081519050620001438162000118565b92915050565b600080600060608486031215620001655762000164620000a4565b5b60006200017586828701620000f7565b9350506020620001888682870162000132565b92505060406200019b8682870162000132565b9150509250925092565b7f4e487b7100000000000000000000000000000000000000000000000000000000600052601160045260246000fd5b6000620001e1826200010e565b9150620001ee836200010e565b9250828201905080821115620002095762000208620001a5565b5b92915050565b610f63806200021f6000396000f3fe6080604052600436106100c25760003560e01c8063864333741161007f578063d473f29e11610059578063d473f29e14610255578063d57bde7914610280578063d6fbf202146102ab578063fe67a54b146102d6576100c2565b806386433374146101d457806391f90157146101ff578063b40a56271461022a576100c2565b806308551a53146100c75780631998aeef146100f25780633a6dcea2146100fc5780634423c5f11461012d5780634b449cba1461016b57806358ed1aae14610196575b600080fd5b3480156100d357600080fd5b506100dc6102ed565b6040516100e99190610a57565b60405180910390f35b6100fa610311565b005b34801561010857600080fd5b506101116105a5565b6040516101249796959493929190610ac7565b60405180910390f35b34801561013957600080fd5b50610154600480360381019061014f9190610b67565b610628565b604051610162929190610b94565b60405180910390f35b34801561017757600080fd5b5061018061067c565b60405161018d9190610bbd565b60405180910390f35b3480156101a257600080fd5b506101bd60048036038101906101b89190610b67565b610682565b6040516101cb929190610b94565b60405180910390f35b3480156101e057600080fd5b506101e9610899565b6040516101f69190610bd8565b60405180910390f35b34801561020b57600080fd5b506102146108ac565b6040516102219190610bf3565b60405180910390f35b34801561023657600080fd5b5061023f6108d2565b60405161024c9190610bbd565b60405180910390f35b34801561026157600080fd5b5061026a6108d8565b6040516102779190610bbd565b60405180910390f35b34801561028c57600080fd5b506102956108e2565b6040516102a29190610bbd565b60405180910390f35b3480156102b757600080fd5b506102c06108e8565b6040516102cd9190610bbd565b60405180910390f35b3480156102e257600080fd5b506102eb6108ee565b005b60008054906101000a900473ffffffffffffffffffffffffffffffffffffffff1681565b6004544210610355576040517f08c379a000000000000000000000000000000000000000000000000000000000815260040161034c90610c6b565b60405180910390fd5b6002543411610399576040517f08c379a000000000000000000000000000000000000000000000000000000000815260040161039090610cfd565b60405180910390fd5b600073ffffffffffffffffffffffffffffffffffffffff16600360009054906101000a900473ffffffffffffffffffffffffffffffffffffffff1673ffffffffffffffffffffffffffffffffffffffff161461045b57600360009054906101000a900473ffffffffffffffffffffffffffffffffffffffff1673ffffffffffffffffffffffffffffffffffffffff166108fc6002549081150290604051600060405180830381858888f19350505050158015610459573d6000803e3d6000fd5b505b3460028190555033600360006101000a81548173ffffffffffffffffffffffffffffffffffffffff021916908373ffffffffffffffffffffffffffffffffffffffff160217905550600060405180604001604052803373ffffffffffffffffffffffffffffffffffffffff168152602001348152509050600781908060018154018082558091505060019003906000526020600020906002020160009091909190915060008201518160000160006101000a81548173ffffffffffffffffffffffffffffffffffffffff021916908373ffffffffffffffffffffffffffffffffffffffff1602179055506020820151816001015550506006600081548092919061056490610d4c565b91905055507fff2d32ce56b0b5d23a2d2e0fa74261ef152c762e716daa7e6eb1cc0fafa0a4e8333460405161059a929190610b94565b60405180910390a150565b60008060008060008060008060009054906101000a900473ffffffffffffffffffffffffffffffffffffffff16600154600254600360009054906101000a900473ffffffffffffffffffffffffffffffffffffffff16600454600560009054906101000a900460ff16600654965096509650965096509650965090919293949596565b6007818154811061063857600080fd5b90600052602060002090600202016000915090508060000160009054906101000a900473ffffffffffffffffffffffffffffffffffffffff16908060010154905082565b60045481565b6000806006548311156106ca576040517f08c379a00000000000000000000000000000000000000000000000000000000081526004016106c190610de0565b60405180910390fd5b6000600784815481106106e0576106df610e00565b5b90600052602060002090600202016040518060400160405290816000820160009054906101000a900473ffffffffffffffffffffffffffffffffffffffff1673ffffffffffffffffffffffffffffffffffffffff1673ffffffffffffffffffffffffffffffffffffffff1681526020016001820154815250509050600454421161079f576040517f08c379a000000000000000000000000000000000000000000000000000000000815260040161079690610e7b565b60405180910390fd5b600360009054906101000a900473ffffffffffffffffffffffffffffffffffffffff1673ffffffffffffffffffffffffffffffffffffffff163373ffffffffffffffffffffffffffffffffffffffff161480610846575060008054906101000a900473ffffffffffffffffffffffffffffffffffffffff1673ffffffffffffffffffffffffffffffffffffffff163373ffffffffffffffffffffffffffffffffffffffff16145b610885576040517f08c379a000000000000000000000000000000000000000000000000000000000815260040161087c90610f0d565b60405180910390fd5b806000015181602001519250925050915091565b600560009054906101000a900460ff1681565b600360009054906101000a900473ffffffffffffffffffffffffffffffffffffffff1681565b60065481565b6000600454905090565b60025481565b60015481565b600454421015610933576040517f08c379a000000000000000000000000000000000000000000000000000000000815260040161092a90610e7b565b60405180910390fd5b6001600560006101000a81548160ff02191690831515021790555060008054906101000a900473ffffffffffffffffffffffffffffffffffffffff1673ffffffffffffffffffffffffffffffffffffffff166108fc6002549081150290604051600060405180830381858888f193505050501580156109b6573d6000803e3d6000fd5b507fdaec4582d5d9595688c8c98545fdd1c696d41c6aeaeb636737e84ed2f5c00eda600360009054906101000a900473ffffffffffffffffffffffffffffffffffffffff16600254604051610a0c929190610b94565b60405180910390a1565b600073ffffffffffffffffffffffffffffffffffffffff82169050919050565b6000610a4182610a16565b9050919050565b610a5181610a36565b82525050565b6000602082019050610a6c6000830184610a48565b92915050565b6000610a7d82610a16565b9050919050565b610a8d81610a72565b82525050565b6000819050919050565b610aa681610a93565b82525050565b60008115159050919050565b610ac181610aac565b82525050565b600060e082019050610adc600083018a610a84565b610ae96020830189610a9d565b610af66040830188610a9d565b610b036060830187610a84565b610b106080830186610a9d565b610b1d60a0830185610ab8565b610b2a60c0830184610a9d565b98975050505050505050565b600080fd5b610b4481610a93565b8114610b4f57600080fd5b50565b600081359050610b6181610b3b565b92915050565b600060208284031215610b7d57610b7c610b36565b5b6000610b8b84828501610b52565b91505092915050565b6000604082019050610ba96000830185610a84565b610bb66020830184610a9d565b9392505050565b6000602082019050610bd26000830184610a9d565b92915050565b6000602082019050610bed6000830184610ab8565b92915050565b6000602082019050610c086000830184610a84565b92915050565b600082825260208201905092915050565b7f41756374696f6e2068617320656e646564000000000000000000000000000000600082015250565b6000610c55601183610c0e565b9150610c6082610c1f565b602082019050919050565b60006020820190508181036000830152610c8481610c48565b9050919050565b7f426964206d75737420626520686967686572207468616e20746865206375727260008201527f656e742068696768657374206269640000000000000000000000000000000000602082015250565b6000610ce7602f83610c0e565b9150610cf282610c8b565b604082019050919050565b60006020820190508181036000830152610d1681610cda565b9050919050565b7f4e487b7100000000000000000000000000000000000000000000000000000000600052601160045260246000fd5b6000610d5782610a93565b91507fffffffffffffffffffffffffffffffffffffffffffffffffffffffffffffffff8203610d8957610d88610d1d565b5b600182019050919050565b7f57726f6e6720496e646578000000000000000000000000000000000000000000600082015250565b6000610dca600b83610c0e565b9150610dd582610d94565b602082019050919050565b60006020820190508181036000830152610df981610dbd565b9050919050565b7f4e487b7100000000000000000000000000000000000000000000000000000000600052603260045260246000fd5b7f41756374696f6e206973207374696c6c206f6e676f696e670000000000000000600082015250565b6000610e65601883610c0e565b9150610e7082610e2f565b602082019050919050565b60006020820190508181036000830152610e9481610e58565b9050919050565b7f4f6e6c7920486967686573742042696464657220616e642073656c6c6572206360008201527f616e20636865636b206269647300000000000000000000000000000000000000602082015250565b6000610ef7602d83610c0e565b9150610f0282610e9b565b604082019050919050565b60006020820190508181036000830152610f2681610eea565b905091905056fea26469706673582212205d37a6535ed1eb194297c1c5e9229c4700282d24f6dc1fe2137e335d9d99efc864736f6c63430008180033",
  "linkReferences": {},
  "deployedLinkReferences": {}
}